:100000000C9493010C94A5010C94A5010C94AF01E0
:100010000C94E71D0C94A5010C94A5010C94A5016A
:100020000C94A5010C94A5010C94A5010C94131635
:100030000C94A5010C94A5010C94A5010C94A501A8
:100040000C94C7150C94A5010C94EA1A0C94791B16
:100050000C94A5010C94A5010C94A5010C94A50188
:100060000C94A5010C94A5013C3042304530483039
:100070004D3055305D30F830F830F8306A306D3042
:1000800076307F30F830F830F830F830F830F8302B
:100090008B309530A130A930AC30B530BE30C43093
:1000A000F830F830CD30D630E130A104BD0FBD0FAF
:1000B000AB04B804C504D204BD0FD604BD0FE404DC
:1000C000BD0FEE04F8040205BD0FBD0FBD0F1205F4
:1000D0001F052C051F1B3B1B681B681B681B681B2F
:1000E000681B681B681B681B681B681B681B681BF8
:1000F000681B411B431B451B471B491B681B681B97
:10010000681B681B4D1B4F1B511B681B531B084A68
:10011000D73B3BCE016E84BCBFFDC12F3D6C74311B
:100120009ABD56833DDA3D00C77F11BED9E4BB4C72
:100130003E916BAAAABE000000803F05A84CCDB23C
:10014000D44EB93836A9020C50B9918688083CA61D
:10015000AAAA2ABE000000803F000D0A4772626C06
:10016000204475655F322D30205B27242720666F81
:10017000722068656C705D0D0A00244E005B4F5064
:10018000543A005B5645523A4475655F322D302E25
:100190004475652D4E58543A005B544C4F3A005B01
:1001A0004739323A003330003238005B470020478D
:1001B00000204D0020530020460020540033382EEC
:1001C000005B47433A47005B484C503A24242024C4
:1001D0002320244720244920244E2024783D766182
:1001E0006C20244E783D6C696E6520244A3D6C6914
:1001F0006E652024534C502024432024582024484A
:10020000207E2021203F206374726C2D785D0D0AC2
:1002100000536C656570696E6700526573746F7228
:10022000696E67207370696E646C650052657374E3
:100230006F72696E672064656661756C74730050D7
:10024000676D20456E6400436865636B204C696D83
:1002500069747300436865636B20446F6F72004478
:10026000697361626C656400456E61626C6564000F
:1002700043617574696F6E3A20556E6C6F636B6580
:100280006400272448277C2724582720746F207572
:100290006E6C6F636B00526573657420746F2063BE
:1002A0006F6E74696E7565005B4D53473A00414C43
:1002B00041524D3A007C413A007C4F763A007C57DF
:1002C000434F3A007C506E3A007C46533A007C42E1
:1002D000663A007C57506F733A007C4D506F733A0A
:1002E00000536C65657000446F6F723A0043686537
:1002F000636B00416C61726D00486F6D65004A6F01
:100300006700486F6C643A0052756E0049646C6512
:10031000000D0A005B5052423A006572726F723AE9
:10032000006F6B0D0A0011241FBECFEFD8E0DEBFB7
:10033000CDBF27E0A0E0B1E001C01D92A536B20715
:10034000E1F70E94FE2B0C94783A0C940000F99986
:10035000FECF92BD81BD81E08FBB80B508951F9215
:100360000F920FB60F9211242F933F934F935F93E9
:100370006F937F938F939F93AF93BF93EF93FF936D
:1003800080911A01813049F080910C07811105C0DC
:100390000E94682981E00E947E1DFF91EF91BF912C
:1003A000AF919F918F917F916F915F914F913F910D
:1003B0002F910F900FBE0F901F90189593B19671CB
:1003C0008091700186FD02C086E19827992349F04B
:1003D00091FB882780F992FD8260907119F084600A
:1003E000089580E00895EBE6F0E08081897E8083C7
:1003F000E8E6F0E080818E7F8083089584B1897E75
:1004000084B985B1866185B98091700183FF0BC085
:1004100080916B00866180936B00809168008160A1
:100420008093680008950C94F30161E071E088E91D
:1004300091E00C94971D9F92AF92BF92CF92DF9262
:10044000EF92FF920F931F93CF93DF935B018A018B
:100450007C01E40EF51EEC01912C6B01C81AD90A3F
:10046000C6018C0F9D1FCE15DF0589F00E94A701E4
:10047000911008C0292D990C330B232F221F2227FE
:10048000221F01C021E0982E920E8993E9CFC50169
:10049000800F911F0E94A70121E030E0981611F013
:1004A00020E030E0C901DF91CF911F910F91FF90C3
:1004B000EF90DF90CF90BF90AF909F900895F89409
:1004C000F999FECF92BD81BD81E08FBB80B58627B3
:1004D000482F082E000C550B262F30E024233523FF
:1004E000232B39F06F3F19F060BD84E006C084E132
:1004F00004C0882321F060BD84E28FBBF99A789410
:1005000008959F92AF92BF92CF92DF92EF92FF92A7
:100510000F931F93CF93DF935C018A017B01E40E5D
:10052000F51EEB01912C6C01C61AD70ACE018C0D79
:100530009D1DCE15DF0589F0911008C0292D990C5D
:10054000330B232F221F2227221F01C021E0699194
:10055000922E960E0E945F02E9CF692DC501800F91
:10056000911FDF91CF911F910F91FF90EF90DF903E
:10057000CF90BF90AF909F900C945F0290911B0121
:10058000911108C0811102C0439802C086FD439AB0
:100590001092250108952F923F924F925F926F9291
:1005A0007F928F929F92AF92BF92CF92DF92EF9203
:1005B000FF920F931F93CF93DF93CDB7DEB7C8544D
:1005C000D1090FB6F894DEBF0FBECDBF8EE3E0ECCD
:1005D000F1E0DF011D928A95E9F78BE0E0E8F1E0B8
:1005E000A1ECB1E001900D928A95E1F78091150799
:1005F000843211F00C94DE0F81E08093C1011092DF
:10060000C20183E08A8FB1E0BBA3212C312C18AA50
:100610001FA619A61B8E1F8E992493947AE0C72ECD
:10062000D12CEEE58E2E03E0F1E6AF2EF3E0BF2EE7
:100630008A8DE82FF0E0EB5EF84FE080EE2009F4C1
:100640003DC29FEB9E0D9A3110F00C94AD0F8F5F61
:100650008A8FBE016A5E7F4FCE014A960E948C2926
:10066000882311F40C94AF0F4E885F88688C798CC6
:10067000C301B2010E94F0390E942E37162F70E09C
:1006800080E090E00E945F379B01AC01C301B201A2
:100690000E94B53520E030E048EC52E40E940D396C
:1006A0000E947A390E942E37CB01E7E4EE1629F03A
:1006B000FDE4EF1609F4EAC033C1183209F4C5C0ED
:1006C00020F5143168F4113108F08AC0143009F4AF
:1006D00052C008F464C01A3009F445C00C94BD0F30
:1006E0001C3109F440C050F4163110F00C94BD0FC9
:1006F00025E1211B2093C30126E0ACC01E3199F1F6
:10070000163209F44CC00C94BD0F1D3309F497C088
:10071000A8F4153381F140F41B3209F47AC0113387
:1007200009F477C00C94BD0F1C3310F00C94BD0F6E
:100730006AEC610F6093C70129E08CC01C3538F466
:100740001A3508F053C0103581F10C94BD0F1C35DB
:1007500051F01F3510F00C94BD0F282D211B209354
:10076000C20125E077C0009731F42F8D21110C9440
:10077000B10F31E03F8F1093C001212F2D7F2C311D
:1007800019F01C3509F063C0009721F00A9711F0A9
:100790000C94BD0F610F6093C00120E060C04F8DCD
:1007A00041110C94B10FA2E0AF8F1093C10116322A
:1007B00009F04FC08431910559F08E31910541F017
:1007C0008832910529F08233910511F00C94BD0F08
:1007D000B6010E94223A66576093C10121E03FC0F2
:1007E0006FEE610F6093C50122E034C0892B31F4B4
:1007F00066EA610F6093C40123E031C06A3071057D
:1008000011F00C94BD0F1A3511F40C94BD0F24E0B7
:1008100026C0BF8DB1110C94B10F113331F4109279
:10082000C60128E0E3E0EF8F1AC00A9711F00C949C
:10083000BD0F9092C60128E0F3E0FF8F10C0892B16
:1008400011F00C94BD0F2AE00AC027E003C020E09D
:1008500001C021E0892B19F087E10C94E50F81E0BC
:1008600090E002C0880F991F2A95E2F72FA538A9BA
:1008700028233923232B19F085E10C94E50F2FA5AC
:1008800038A9282B392B38AB2FA7D2CE892B21F7AB
:10089000163018F4133058F015C0183010F40C94BA
:1008A000BD0F1A30E8F01E3151F00C94BD0F11232A
:1008B00019F01130F9F003C00093C8011BC0109368
:1008C000C80118C0143021F0153031F080E101C0AA
:1008D00080E28093CA0102C01092CA018CE00BC072
:1008E000193021F080E48093C90102C01092C9013F
:1008F0008DE001C08BE0A1E0B0E002C0AA0FBB1FF9
:100900008A95E2F72FA538A92A233B23232B09F048
:10091000B3CFEFA5F8A9EA2BFB2BF8ABEFA788CE56
:100920008E2DEE0C990BAA0BBB0BFC01E654F109C2
:10093000E531F10510F00C94BD0FEB5AFF4F0C940C
:10094000583A4092CC015092CD016092CE01709203
:10095000CF0180E08DC04092D4015092D5016092C9
:10096000D6017092D701F9A5F160F9A781E080C0A6
:100970004092D8015092D9016092DA017092DB0165
:1009800029A5226029A782E073C04092DC01509221
:10099000DD016092DE017092DF0139A5346039A774
:1009A00083E066C01093E00184E062C0C301B2013D
:1009B0000E9427376093E1017093E2018093E30185
:1009C0009093E40185E054C04092E5015092E60125
:1009D0006092E7017092E80186E04AC04092E90126
:1009E0005092EA016092EB017092EC0187E040C006
:1009F0004092ED015092EE016092EF017092F00191
:100A000088E036C020E030E04FE753E4C301B20194
:100A10000E94CD38181614F40C94B30F1093F10102
:100A200089E026C04092F2015092F3016092F401F5
:100A30007092F5014B8D41604B8F8AE019C0409256
:100A4000F6015092F7016092F8017092F9018B8DD6
:100A500082608B8F8BE00CC04092FA015092FB01B8
:100A60006092FC017092FD019B8D94609B8F8CE0E5
:100A7000EE24E394F12C082E02C0EE0CFF1C0A9425
:100A8000E2F7970122213321232B11F00C94B50FAB
:100A9000D50102C0B595A7958A95E2F7A0FF0BC0D6
:100AA00020E030E0A901C301B2010E94AB3687FF0C
:100AB00002C00C94B70F2E283F28BACDBB8DBB23A4
:100AC00029F0EF8DE11102C0F2E0FF8F25FE0FC08B
:100AD0008091E1019091E201A091E301B091E401E4
:100AE00081389649A849B10514F00C94B90F3BA17F
:100AF000332329F020FC02C00C94C30F18C080914E
:100B0000C201813071F44F8D4230E1F58091C10115
:100B10008035C1F18823B1F120FC02C00C94C30FD1
:100B200031C08091810181112DC020FE1BC08091B8
:100B3000C301813039F523E333E34BEC51E4609199
:100B4000CC017091CD018091CE019091CF010E9496
:100B50000D396093CC017093CD018093CE019093B9
:100B6000CF0110C080918F0190919001A0919101CF
:100B7000B09192018093CC019093CD01A093CE01CE
:100B8000B093CF0130FC10C080918B0190918C010B
:100B9000A0918D01B0918E018093ED019093EE01B3
:100BA000A093EF01B093F0018091C001843039F43B
:100BB00026FC03C08CE10C94E50FE89426F88091A4
:100BC000C501882369F0813029F48DAF19AE92E018
:100BD0009FAB0BC01DAEA2E0A9AFB1E0BFAB05C09B
:100BE000E2E0EDAFF1E0F9AF1FAA8091C3018130DF
:100BF00021F02F8D2330B9F52DC050ECE52E51E0BA
:100C0000F52E00E010E03B8DC32ED12CC601002E46
:100C100002C0959587950A94E2F780FF12C023E3FE
:100C200033E34BEC51E4D701D2966D917D918D91D8
:100C30009C91D5970E940D39F70162AB73AB84ABE1
:100C400095AB0F5F1F4FF4E0EF0EF11C0330110561
:100C5000E9F6CFCF8091C601813029F42B8D243065
:100C600011F00C94BB0F8CE0E4EAF1E0DE01119688
:100C700001900D928A95E1F78FA598A991FD09C081
:100C80009091C0019FA39A30C9F09C3509F4B1C07E
:100C900018C18091C701873018F08DE10C94E50FE1
:100CA00090918601891761F3BE016F5F7F4F0E94AB
:100CB0008F19882311F40C94D10FE2CFAB8DA111C1
:100CC00003C08AE10C94E50FC10180759927892B37
:100CD00009F470CF6091E5017091E6018091E70120
:100CE0009091E8010E94F0390E942E376730A8F6F3
:100CF0008091E001843141F0823011F00C94BD0FFD
:100D000027FE02C00C94BD0FBFEA2B22662319F008
:100D100061506DA703C0E091C701EDA764ED71E0DC
:100D20008DA50E948F19882311F40C94D10F9090F7
:100D3000E0014090BC015090BD016090BE017090F8
:100D4000BF0100EC11E040E8C42E41E0D42EE12CBC
:100D5000F12CFB8DAF2EB12CC5010E2C02C0959548
:100D600087950A94E2F780FF36C024E192122AC0E8
:100D7000D601D0962D913D914D915C91D397589687
:100D80006D917D918D919C915B970E94B535F80195
:100D900022A933A944A955A90E94B535D801549672
:100DA0006D937D938D939C935797B2E0EB1213C094
:100DB000A30192010E94B535F801648B758B868B77
:100DC000978B09C0F80182A993A9A4A9B5A9848B1E
:100DD000958BA68BB78BFFEFEF1AFF0A0C5F1F4FA7
:100DE00024E0C20ED11C33E0E316F10409F0B4CFC5
:100DF00035C14B8D442309F464CF4090BC01509021
:100E0000BD016090BE017090BF0120E8A22E21E0DC
:100E1000B22E8E010F5F1F4F30ECE32E31E0F32E28
:100E2000C12CD12C842E912CC4010C2C02C0959580
:100E300087950A94E2F780FF29C0D8012D913D9152
:100E40004D915C91F501608D718D828D938D0E9425
:100E5000B535D701D2962D913D914D915C91D597A5
:100E60000E94B535F70162AB73AB84AB95ABF2E092
:100E7000CF1216C0A30192010E94B535D701D296B8
:100E80006D937D938D939C93D5970AC0F50180A9AE
:100E900091A9A2A9B3A9F70182AB93ABA4ABB5AB5F
:100EA000FFEFCF1ADF0A24E0A20EB11C0C5F1F4F28
:100EB00034E0E30EF11C43E0C416D10409F0B4CFD2
:100EC000CCC08F8D833071F49FA19E3109F48FC007
:100ED000953309F4BDC09C3109F0BFC064ED71E0E9
:100EE00086E088C0AB8DAA2379F3B091C401BDA779
:100EF0004090BC015090BD016090BE017090BF0158
:100F000090E8C92E91E0D92E00EC11E0FE01319657
:100F10004F01E12CF12CAA2EB12CC5010E2C02C0E0
:100F2000959587950A94E2F780FD0BC0F601808DB8
:100F3000918DA28DB38DF80182AB93ABA4ABB5AB11
:100F400045C0FFA1F53309F441C02DA521112BC0E7
:100F5000D601D0962D913D914D915C91D397F4019E
:100F600060817181828193810E94B635D801D296C9
:100F70002D913D914D915C91D5970E94B635F80128
:100F800062AB73AB84AB95ABF2E0EF121FC0A30171
:100F900092010E94B635D801D2966D937D938D93C0
:100FA0009C93D59713C0F601208D318D428D538DC2
:100FB000D801D2966D917D918D919C91D5970E948B
:100FC000B635F80162AB73AB84AB95ABFFEFEF1AAC
:100FD000FF0A24E0C20ED11C0C5F1F4F34E0830EC9
:100FE000911C43E0E416F10409F097CF6DCF64ED56
:100FF00071E087E00E948F19882309F4D2C78B8D96
:10100000811103C01DA61F8E29C0A0E8B1E0E0EC4D
:10101000F1E080E090E04B8D242F30E0A901082E14
:1010200002C0559547950A94E2F740FD0AC05896CC
:101030004D915D916D917C915B97448B558B668B47
:10104000778B0196149634968330910539F705C055
:101050008091C101823008F092C71DA68091C10124
:101060008FA3803521F49B8D91118BC7FCC1AF8D6F
:10107000A23009F0F8C1BFA1B11104C0EB8DE1119C
:10108000F2C12AC020E030E0A9016091CC0170914A
:10109000CD018091CE019091CF010E94AB36882383
:1010A00009F471C7FFA1FC3809F4D2C140F4F23051
:1010B000A9F0F330B1F0F13009F0D5C10AC02FA189
:1010C0002E3809F4C5C108F4C0C12F3809F4BDC1D8
:1010D000CAC13B8D3111C7C11F8EC5C14BA1446030
:1010E0004BA38B8D882309F4ECCD9FA9092F10E029
:1010F000B9ADAB2FB0E0BCABABAB81E090E07C0115
:101100000FA802C0EE0CFF1C0A94E2F709AC02C063
:10111000880F991F0A94E2F7E82AF92AEB8D8E2F9F
:1011200090E08E219F21892B09F42FC7F801EE0F43
:10113000FF1FEE0FFF1FE054FE4FD801AA0FBB1F89
:10114000AA0FBB1FA856BE4F2D913D914D915C91AA
:1011500062A973A984A995A90E94B5352B013C0108
:10116000EBA9FCA9EE0FFF1FEE0FFF1FE054FE4F8F
:10117000ABA9BCA9AA0FBB1FAA0FBB1FA856BE4F85
:101180002D913D914D915C9162A973A984A995A976
:101190000E94B5354B015C016101F0E8CF22DD24EE
:1011A00027FEE7C0E89427F88091C3018130B1F4AD
:1011B00023E333E34BEC51E46091E9017091EA01E0
:1011C0008091EB019091EC010E940D396093E9014F
:1011D0007093EA018093EB019093EC018091E90117
:1011E0009091EA01A091EB01B091EC0189A79AA737
:1011F000ABA7BCA7A3019201C301B2010E940D39A4
:1012000025966CAF7DAF8EAF9FAF2597A50194015A
:10121000C501B4010E940D3929966CAF7DAF8EAF28
:101220009FAF299720E030E040E850E469A57AA517
:101230008BA59CA50E940D3929A53AA54BA55CA5B7
:101240000E940D3925962CAD3DAD4EAD5FAD259775
:101250000E94B53529962CAD3DAD4EAD5FAD2997B9
:101260000E94B5356B017C0120E030E0A9010E94AD
:10127000AB3687FD8CC6C701B6010E94AC396B0145
:101280007C0129962CAD3DAD4EAD5FAD29972596DD
:101290006CAD7DAD8EAD9FAD25970E94B6350E9499
:1012A000AC399B01AC01C701B60190580E94B5361C
:1012B0006B017C019FA1933021F4F7FAF094F7F8C9
:1012C000F09420E030E0A90169A57AA58BA59CA542
:1012D0000E94AB3687FF11C0F7FAF094F7F8F0944C
:1012E00089A59AA5ABA5BCA5B0588093E9019093B8
:1012F000EA01A093EB01B093EC01000F111F000F66
:10130000111F0C521E4FA7019601C501B4010E9486
:101310000D399B01AC01C301B2010E94B53520E03B
:1013200030E040E05FE30E940D39D8016D937D937A
:101330008D939C9313970BA91CA9000F111F000FED
:10134000111F0C521E4FA7019601C301B2010E944A
:101350000D39A50194010E94B63520E030E040E04F
:101360005FE30E940D39F801608371838283938368
:101370007AC0F9A5AF2EB12CEA20FB20EF2809F4A2
:1013800008C621EF22228091C3018130A1F1F8012A
:10139000EE0FFF1FEE0FFF1FEC52FE4F60817181B9
:1013A00082819381EBA9FCA9EE0FFF1FEE0FFF1FB7
:1013B000EC52FE4FC080D180E280F3809B01AC01F3
:1013C0000E940D394B015C01A7019601C701B601CE
:1013D0000E940D399B01AC01C501B4010E94B635D4
:1013E0000E94AC396093E9017093EA018093EB01AC
:1013F0009093EC0138C090ECE92E91E0F92EC501F4
:101400000C2C02C0959587950A94E2F780FF12C0D4
:1014100023E333E34BEC51E4D70154966D917D9176
:101420008D919C9157970E940D39F701648B758BB4
:10143000868B978BFFEFCF1ADF0A24E0E20EF11CB8
:1014400033E0C316D104D9F6A2CF4BA140614BA320
:101450008FA18E58823018F48BA188608BA39B8D4E
:10146000992309F42ECC2BA12170ABA1C101A0FFBF
:1014700002C08E7D02C08E7D9C7FBF8DB111937E98
:10148000892B09F088C58E01035F1F4F89E0F801A1
:1014900011928A95E9F7222309F44BC08FA598A9E8
:1014A000867B892B09F079C58091C001853311F0C5
:1014B000811173C580918B0190918C01A0918D0158
:1014C000B0918E01898B9A8BAB8BBC8B90918901EB
:1014D00080918801892B4091CC015091CD01609180
:1014E000CE017091CF014D875E876F87788B8460C6
:1014F0008D8B8091700185FF06C082EF91E00E9484
:101500005E3181114CC5B80182EF91E00E946435D3
:1015100080911A01811147C50E94BA27892B09F4CD
:1015200042C580E280931A010E941F1E0E945B1830
:101530003AC580917001F090890181FF26C08FA18A
:101540008150833018F0FBA1F064FBA32B8D222384
:1015500039F03F8D323021F44BA140684BA315C0C8
:1015600080E1F81212C08091800181509BA190749B
:10157000833030F4992349F09BA190629BA305C06E
:10158000911103C0ABA1A062ABA38091E101909146
:10159000E201A091E301B091E40180939401909362
:1015A0009501A0939601B09397018091C201809319
:1015B0008101882311F088E08D8B8091CC0190917E
:1015C000CD01A091CE01B091CF0180938F01909376
:1015D0009001A0939101B09392018D879E87AF8770
:1015E000B88B8090ED019090EE01A090EF01B0904B
:1015F000F001A501940160918B0170918C018091A3
:101600008D0190918E010E94AB36BBA1B074EB2E80
:10161000811103C0EBA1E5FF20C0FF2071F0FBA109
:10162000F7FD0BC0EE2021F040E050E0BA0102C00F
:10163000B501A4018F2D0E9440318091ED01909160
:10164000EE01A091EF01B091F00180938B01909396
:101650008C01A0938D01B0938E01E1100CC080919C
:101660008B0190918C01A0918D01B0918E01898B9D
:101670009A8BAB8BBC8B8091F1018093930180910D
:10168000CA0190918901981751F049895A896B894B
:101690007C890E9440318091CA01809389019D8993
:1016A00080918901892B8D8BF090C90180918801EF
:1016B0008F15A9F080911A01823029F00E94CA2763
:1016C0008F2D0E94BE028091C901811103C010922A
:1016D000880105C090918801892B809388019D899C
:1016E00080918801892B8D8B8091C001843099F481
:1016F000C090E501D090E601E090E701F090E801AC
:1017000080911A01823039F00E94CA2740E0C70157
:10171000B6010E9439298091C5018093840180918E
:10172000C301809382012F8D233071F58091C60112
:1017300080938501811108C01092FA011092FB017B
:101740001092FC011092FD01C090FA01D090FB01B3
:10175000E090FC01F090FD01A70196016091BC01B1
:101760007091BD018091BE019091BF010E94AB3686
:10177000882351F0C092BC01D092BD01E092BE011D
:10178000F092BF010E94C5318091C70190918601FE
:10179000981769F0809386018CE0FE013196A4EAE7
:1017A000B1E001900D928A95E1F70E94C5318091D8
:1017B000C401809383018091C0018632F1F138F435
:1017C0008C3109F18E31F9F08A3069F04FC08C35D7
:1017D000D1F1863609F441C0883209F047C068E982
:1017E00071E087E02DC064ED71E08DA50E947B194A
:1017F000809186013DA5381339C08CE0E4EDF1E01D
:10180000A4EAB1E025C08D8981608D8B4F8D442382
:1018100029F0B80182EF91E00E946435B80184EDAF
:1018200091E00E9464358CE0E4EDF1E0A8E9B1E0DC
:1018300001900D928A95E1F719C068E971E086E0A0
:101840000E947B1913C08CE0E2EFF1E0A0EBB1E065
:1018500001900D928A95E1F707C08CE0E0EBF1E092
:10186000DF011D928A95E9F70E94C5318091C1017F
:1018700080938001803509F422C3BF8DB23009F016
:101880001EC3813021F4BE01635F7F4F06C081110A
:1018900009C08D8981608D8BB80182EF91E00E9433
:1018A000643504C38250823008F099C28091E90106
:1018B0009091EA01A091EB01B091EC018F8F98A378
:1018C000A9A3BAA3AFA994E0A99F70011124F701BD
:1018D000E856FE4FF8A7EFA397012C523E4F3EA7C4
:1018E0002DA7D9014D905D906D907C902081318124
:1018F00042815381C301B2010E94B6356FA778AB14
:1019000089AB9AABE9ADB4E0EB9F8001112498015B
:1019100028563E4F3AA729A7C8018C529E4F98AF30
:101920008FABDC018D909D90AD90BC90F901208132
:10193000318142815381C501B4010E94B63569AF3E
:101940007AAF8BAF9CAF77FA709477F87094D5012B
:10195000C401B0588B8F9C8FAD8FBE8FF701EE50B6
:10196000FE4F2FA538A949A95AA9608171818281AA
:1019700093810E94B5356B017C01F801EE50FE4F5A
:1019800029AD3AAD4BAD5CAD6081718182819381AF
:101990000E94B5354B015C01A7019601C301B2015C
:1019A0000E940D396BAB7CAB8DAB9EABA501940156
:1019B0006B8D7C8D8D8D9E8D0E940D399B01AC01B0
:1019C0006BA97CA98DA99EA90E94B6356BAB7CAB97
:1019D0008DAB9EABA5019401C301B2010E940D39EC
:1019E0004B015C01A70196016B8D7C8D8D8D9E8DC9
:1019F0000E940D399B01AC01C501B4010E94B535AF
:101A00002BA93CA94DA95EA90E9435366B017C012A
:101A10009BA192FF13C02DEB37E346E055EBC701C6
:101A2000B6010E94CD3887FD1DC02BED3FE049EC8B
:101A300050E4C701B6010E94B53512C02DEB37E363
:101A400046E055E3C701B6010E94AB36181654F0C4
:101A50002BED3FE049EC50E4C701B6010E94B635DA
:101A60006B017C018090640190906501A0906601FB
:101A7000B09067012F8D38A149A15AA1CA01B901BF
:101A80000E94B635A50194010E94B535A5019401C7
:101A90000E940D390E94AC394B015C0120E030E01E
:101AA00040E05FE3C701B6010E940D392F8D38A1D8
:101AB00049A15AA10E940D399F77A50194010E9466
:101AC000B5360E949A370E942E377CAB6BABDB0198
:101AD000AB2B09F4D8CE1D894B01A12CB12C13FFDF
:101AE00012C0C501B4010E945D379B01AC016D8538
:101AF0007E858F8598890E940D396D877E878F87B7
:101B0000988B177F1D8BC501B4010E945D374B0177
:101B10005C019B01AC01C701B6010E94B5366BA305
:101B20007CA38DA39EA3EDADB4E0EB9FC001112477
:101B30008C0108561E4FFC01EE50FE4FD8012D912E
:101B40003D914D915C9160817181828193810E9470
:101B5000B535A50194010E94B53629966CAF7DAFCD
:101B60008EAF9FAF29972BA13CA14DA15EA1CA01C9
:101B7000B9010E940D399B01AC0160E070E080E08A
:101B800090E40E94B5356B017C012BEA3AEA4AE207
:101B90005EE36BA17CA18DA19EA10E940D394B013A
:101BA0005C0120E030E040E850E4C701B6010E944B
:101BB000B6359B01AC01C501B4010E940D392196D7
:101BC0006CAF7DAF8EAF9FAF219720E030E040E05B
:101BD0005FE3C701B6010E940D3925966CAF7DAF5A
:101BE0008EAF9FAF25971F8E22242394312CEBA913
:101BF000FCA9E215F30509F446CEBF8DBC3008F010
:101C000048C02B8D3C8D4D8D5E8D25966CAD7DAD88
:101C10008EAD9FAD25970E940D396B017C01A3010C
:101C2000920121966CAD7DAD8EAD9FAD21970E9446
:101C30000D39A70196010E94B6357B016C01A30105
:101C4000920125966CAD7DAD8EAD9FAD25970E941E
:101C50000D394B015C012B8D3C8D4D8D5E8D219698
:101C60006CAD7DAD8EAD9FAD21970E940D399B016E
:101C7000AC01C501B4010E94B5352B013C01EF8DCB
:101C8000EF5FEF8F470156018B8E9C8EAD8EBE8E1F
:101C900065C0B10180E090E00E945D372BA13CA1BE
:101CA0004DA15EA10E940D396B017C010E94B036EE
:101CB0006B8F7C8F8D8F9E8FC701B6010E949E39DE
:101CC0004B015C01ADA5BEA5CD90DD90ED90FC90E3
:101CD000F7FAF094F7F8F094AFA9B8AD8D919D9113
:101CE0000D90BC91A02D8F8F98A3A9A3BAA3A70193
:101CF00096016B8D7C8D8D8D9E8D0E940D392B01F3
:101D00003C012F8D38A149A15AA1C501B4010E94FF
:101D10000D399B01AC01C301B2010E94B6352B0104
:101D20003C01A7019601C501B4010E940D396B0168
:101D30007C012F8D38A149A15AA16B8D7C8D8D8D91
:101D40009E8D0E940D399B01AC01C701B6010E9416
:101D5000B5356B8F7C8F8D8F9E8F1F8EA301920167
:101D60006FA578A989A99AA90E94B635EFA1F8A50F
:101D700060837183828393832B8D3C8D4D8D5E8D2B
:101D800069AD7AAD8BAD9CAD0E94B635A9A5BAA55B
:101D90006D937D938D939C93139729962CAD3DADB8
:101DA0004EAD5FAD2997F801608171818281938189
:101DB0000E94B635D8016D937D938D939C931397B4
:101DC000BE01635F7F4F88E991E00E946435809196
:101DD0001B0181116BC0BFEF2B1A3B0A08CF8D8905
:101DE00084608D8B80911A01823009F45FC00E945B
:101DF000CA2780911B01811162C0FBA1F071FF2EE7
:101E000010921F012BA123FB882780F90E94342602
:101E100086B1807290910001891749F084E00E9498
:101E20007E1D0E948B1480E00E94342648C0B801B9
:101E300082EF91E00E94643581E08093190182E095
:101E40000E948E1D0E948B1480911B01811137C04E
:101E500080911A018111F6CF80911901813081F4AE
:101E6000FF2051F08CE0E1E0F1E0ADE0B1E0019065
:101E70000D928A95E1F707C085E00E947E1D03C0A0
:101E800081E080931F011092190180E00E943426A6
:101E90000E948B140E9401260E94DB270E94362795
:101EA0000E94CB1B80911F0181118CC08CE0E2EF5E
:101EB000F1E0A8E9B1E001900D928A95E1F78091F7
:101EC000C80180938701882309F47FC00E94CA2734
:101ED0008091870190911A01833041F49230D1F1C1
:101EE00088E00E948E1D0E948B1434C081E0809394
:101EF000800110928401109283011092810110924E
:101F00008601109289011092880184E68093210154
:101F10008093220180932301923091F064EA71E072
:101F200080E00E948F198823E1F10E94C53140E0D2
:101F300050E0BA0180E00E94101980E00E94BE02C9
:101F400088EA92E00E9427278FE392E00E942727E9
:101F50000E945010109287012FC081E036C082E0AD
:101F600034C088E132C086E230C089E12EC084E00E
:101F70002CC08BE12AC085E228C084E126C08EE116
:101F800024C08FE122C086E120C080E21EC082E230
:101F90001CC083E21AC084E218C080E116C08FE042
:101FA00014C087E012C08CE0E2EFF1E0A8E9B1E0F4
:101FB00001900D928A95E1F780E007C01A8E1BA26E
:101FC0000C9405030E9415027ACFC85BDF4F0FB651
:101FD000F894DEBF0FBECDBFDF91CF911F910F915F
:101FE000FF90EF90DF90CF90BF90AF909F908F9039
:101FF0007F906F905F904F903F902F9008950F9338
:102000001F93CF938C01C0E0F80161917191819190
:1020100091918F010E94F226C23019F08CE20E9449
:10202000A31BCF5FC33081F7CF911F910F9108950C
:1020300081E193E00C942727CF92DF92EF92FF92F9
:10204000CF93DF93D82F6A017B01C22F84E20E94D5
:10205000A31B8D2F0E9401278DE30E94A31B4C2FF1
:10206000C701B6010E944626DF91CF91FF90EF9005
:10207000DF90CF900C941810CF93DF93D82FC62FFA
:1020800084E20E94A31B8D2F0E9401278DE30E94F2
:10209000A31B8C2F0E940127DF91CF910C94181065
:1020A0008DE50E94A31B0C9418103F924F925F92F3
:1020B0006F927F928F929F92AF92BF92CF92DF9258
:1020C000EF92FF920F931F93CF93DF93CDB7DEB7BD
:1020D000A4970FB6F894DEBF0FBECDBF10910C07CA
:1020E000112391F181E080931A018EEA92E00E941F
:1020F0002727812F0E9401270E94181085EF91E069
:10210000019739F0EFE9FFE03197F1F700C00000E7
:10211000F7CF1150123030F08FB7F89410920C07AF
:102120008FBF12C088EA92E00E94272786E992E0DA
:102130000E9427270E94501080E10E94841D8091F8
:102140000B0784FFFCCFE8CF10910B07112309F494
:10215000C0C214FF04C081E080931B01C4C310FF00
:10216000C4C18CE0E1E0F1E0DE01599601900D92EE
:102170008A95E1F7BE01675E7F4FCE010D960E9402
:10218000971D8CE30E94A31B80911A018830E1F017
:1021900058F4813099F1A8F0823099F1843009F037
:1021A00043C089EF92E03EC0803229F118F48031BB
:1021B00071F03AC0803441F18038B1F581EE92E09F
:1021C00031C08CE093E02EC088E093E02BC080917A
:1021D0001C0187FD10C082E093E00E9427278091B8
:1021E0001C0180FF06C080E31AC082FF17C085FF74
:1021F000FACF81E314C08EEF92E014C083EF92E037
:1022000011C08DEE92E00EC087EE92E00E9427276B
:1022100080911C0183FFE9CF83E301C082E30E9428
:10222000A31B02C00E94272780915F01F82FF17045
:10223000BF2E80FF07C080912601882319F08AED08
:1022400092E053C04090BC015090BD016090BE012F
:102250007090BF0144EA842E41E0942E9E012F5FCE
:102260003F4F7901CE010D966C0100E0F4016191C0
:102270007191819191914F012085318542855385DE
:102280000E94B635F70160837183828393830230A5
:1022900061F4A30192010E94B635F7016083718356
:1022A00082839383BB2019F0CACFB11011C0F7010C
:1022B0002081318142815381F60160817181828167
:1022C00093810E94B535F601608371838283938385
:1022D0000F5FF4E0EF0EF11C24E0C20ED11C0330BE
:1022E00029F6B110ACCF83ED92E00E942727CE01F2
:1022F0000D960E94FF0F80915F0181FF1FC08EEC41
:1023000092E00E94272790915406809133039817FA
:1023100010F0815F01C08150891B0E9401278CE26F
:102320000E94A31B80919B0290919C02981710F031
:10233000805801C08150891B0E94012789EC92E0DE
:102340000E94272780911A018C7749F06091F2064C
:102350007091F3068091F4069091F50603C060E059
:1023600070E0CB010E94E3268CE20E94A31B6091E7
:102370002701709128018091290190912A0140E064
:102380000E9446260E94DE01F82E0E94D31D082FCF
:1023900086B1982F907280910001E92EE8268F2D4A
:1023A000802B8E2981F184EC92E00E942727EE2079
:1023B00019F080E50E94A31BFF2079F0F0FE03C016
:1023C00088E50E94A31BF1FE03C089E50E94A31BC0
:1023D000F2FE03C08AE50E94A31B0023A1F000FFC8
:1023E00003C084E40E94A31B01FF03C082E50E9496
:1023F000A31B02FF03C088E40E94A31B03FF03C0CA
:1024000083E50E94A31B80912601882321F081503F
:102410008093260118C080911A018C7711F08DE10C
:1024200001C089E08093260180912501811103C0BC
:1024300081E0809325018EEB92E00E942727CE0158
:1024400001960E94FF0F00912501002321F0015009
:102450000093250142C080911A018C7711F083E12D
:1024600001C089E08093250189EB92E00E94272733
:10247000809121010E9401278CE20E94A31B809180
:1024800022010E9401278CE20E94A31B809123015C
:102490000E9401278091B00087FF05C02D9B02C0DC
:1024A00002E001C001E0439B03C0FF24F39403C09A
:1024B000002399F0F12C85EB92E00E94272700235E
:1024C00039F0013011F483E501C083E40E94A31BBD
:1024D000FF2019F086E40E94A31B8EE30E94A31B39
:1024E0000E94181081E00E94841D812F887E09F4CB
:1024F00067C080911A01982F937009F050C08872BC
:10250000A1F080911C01807C81F40E94DD2582E095
:1025100080931E0180911A01803239F417FDE1C1C8
:1025200080911C01806880931C0180911A018111A7
:1025300003C091E090931C0116FF07C085FD05C004
:1025400090911C01906490931C0113FF05C0807E44
:1025500019F480E180931A0115FF21C088EA92E006
:102560000E94272784E592E00E9427270E945010AE
:1025700080911C0187FD0EC090911A01903439F4AE
:1025800083FFABC1837E826080931C01A6C190381B
:1025900009F0A3C180911C01806280931C0117FF88
:1025A0000CC080911A01813029F480911C01856052
:1025B00080931C0180E880931A0188EE0E94841D9C
:1025C00011FF44C0812F8876F1F580911A01803483
:1025D00071F480911C0185FD0AC084FF03C0109234
:1025E0001A0105C082FF03C0886080931C0180919E
:1025F0001A01882381F084FF26C090911C0190FF6E
:1026000022C0803141F480912401882321F0886028
:102610008093240118C010921E010E94BA27892BB2
:1026200071F080911C0186FD0AC010921C0188E0A7
:1026300080931A010E941F1E0E945B1804C0109212
:102640001C0110921A0182E00E94841D12FF41C0F9
:1026500080911A01807D90911C018823D9F080918E
:102660001D01811117C097FD15C00E94DD258091C5
:102670003303809332030E94EC2780911E0181FF77
:1026800005C090911C01916090931C01897F8093FB
:102690001E011CC097FF0AC010921E010E94DB277A
:1026A0000E9401260E9415020E94362780911C017B
:1026B00085FF08C08F77816080931C0180E4809340
:1026C0001A0104C010921C0110921A0184E00E94A9
:1026D000841D90910D07992309F4ABC08FB7F8942E
:1026E00010920D078FBF4091210190FD02C0842FF1
:1026F00001C084E691FD8C5E92FD845193FD8F5F55
:1027000094FD8150893C08F088EC843108F484E120
:102710003091220195FD02C0232F01C024E696FDD1
:1027200022E397FD29E1481303C0231709F481C070
:1027300080932101209322011092250110913303EF
:102740003090540689E9D82E96E7E92E26E9F22E34
:102750000EE732E3432E131509F457C0812E912C56
:10276000489CC001499C900D1124FC01EC5CFC4F7D
:102770005F01CF010E944727562E672E782EC92E63
:102780002D2D3E2D4F2D502F0E94CD3818164CF474
:102790002D2D3E2D4F2D502F6D2D7E2D8F2D902FB9
:1027A00008C0252D362D472D5C2D652D762D872DC6
:1027B0009C2D0E940D39F501668B778B808F918F50
:1027C000489CC001499C900D11249C012C5C3C4FFD
:1027D0007901F90182A093A0A4A0B5A0A50194015C
:1027E00066897789808D918D0E94CD3818162CF4DA
:1027F000F701868A978AA08EB18E1F5F103109F487
:1028000010E0D52C73010C2DA6CF8D2D9E2DAF2D54
:10281000B02F8093160290931702A0931802B093E2
:1028200019020E94DD2580913303809332030E94B8
:10283000EC2790910E07992309F448C08FB7F894BC
:1028400010920E078FBF2091230190FD02C0822FAE
:1028500001C084E691FD865F92FD8A5093FD8F5FF3
:1028600094FD8150893C08F088EC8A3008F48AE0B5
:10287000281749F020911E01286020931E018093A3
:1028800023011092250180911A0195FF0DC080311E
:1028900059F420912401211102C022E003C020FF3D
:1028A00003C0246020932401907C81F0882311F0E0
:1028B000887161F01091880116FF02C01F7B01C072
:1028C0001064812F0E94BE021093880180911A012A
:1028D0008C7F49F00E941F1E06C080E480931A017D
:1028E00059CE80E229CEA4960FB6F894DEBF0FBE73
:1028F000CDBFDF91CF911F910F91FF90EF90DF90AF
:10290000CF90BF90AF909F908F907F906F905F908F
:102910004F903F900895CF92DF92EF92FF921F93D6
:10292000CF93DF930E94551080911C01882309F4F6
:10293000F5C00E94BA27009771F4C0918901809177
:102940008801C82BC0908B01D0908C01E0908D0144
:10295000F0908E0106C0FC01C189C6A4D7A4E0A8EE
:10296000F1A88091700181FF03C080E20E946C1D7C
:10297000DC2FD07311E0C07480911C01882309F40E
:10298000CDC090911B019111C9C080FFC4C090912E
:102990001A01292F207C09F473C082FD0FC0109208
:1029A000240140E050E0BA0180E00E9410198091BB
:1029B0001C018D7F846080931C01ADC09038C9F4E8
:1029C00088EA92E00E94272781E192E00E9427276F
:1029D0000E94501040E050E0BA0180E00E941019BF
:1029E0000E94DD1580911B01811198C00E94551035
:1029F000F9CF903449F40E94D31D80FD05C0809129
:102A00001C018F7D80931C0180911C0183FF83C07A
:102A1000909189019923C1F081FD16C080917001C8
:102A200081FF06C080911E01886080931E010CC04A
:102A3000B701A6018D2F0E94101941E060E070E0FF
:102A400080E090E40E94392980918801882369F010
:102A500080911C0181FD09C08C2F0E94BE0241E0C3
:102A600060E070E0CB010E94392980911C0181FD5A
:102A700052C0806180931C0182E00E948E1D4BC079
:102A8000809124018823C9F181FF0DC080918901C3
:102A90008823B1F040E050E0BA0180E00E941019B4
:102AA0001093240138C08C70B1F18091890181119B
:102AB0000AC08091240183FF03C082E00E948E1D22
:102AC0001092240128C088EA92E00E9427278AE118
:102AD00092E00E9427270E9450108091700181FF90
:102AE00006C080911E01886080931E01E2CFB7016D
:102AF000A6018D2F0E941019DCCF80911E0183FF4B
:102B00000AC0B701A6018D2F0E94101980911E01E5
:102B1000877F80931E010E9455102ECFDF91CF91A9
:102B20001F91FF90EF90DF90CF9008950E94BA27F9
:102B3000892B19F082E00C948E1D08958093B300C8
:102B4000811104C08091B0008F7703C08091B000E4
:102B500080688093B000089580915C01682F209177
:102B60005D01422F982F917080FD94E0822F81703B
:102B700020FD80E261FD986041FD806462FD90610E
:102B800042FD806890930C0380930D0308951F927B
:102B90000F920FB60F9211248F939F938BB1909148
:102BA0000C039C71837E892B8BB915BC9F918F91EF
:102BB0000F900FBE0F901F90189580916F008D7F22
:102BC00080936F0080918100887F81608093810075
:102BD00010920E0380915E0190911A018F3F39F49B
:102BE00020910C07211103C0903881F402C0943069
:102BF00069F090E0009741F0EFE9FFE03197F1F7DD
:102C000000C000000197F6CF81E001C080E0909104
:102C1000700192FF02C091E08927882311F0289A61
:102C20000895289808951F920F920FB60F921124BD
:102C30002F933F934F935F936F937F938F939F93C4
:102C4000AF93BF93EF93FF9380910E03811122C244
:102C50008BB190911E03907E8F71892B8BB98BB1B4
:102C6000837E90911D03892B8BB980911C0386BDB7
:102C700082E085BD81E080930E03789480913003DB
:102C800090913103892B09F0BFC080915506909136
:102C90008006981709F4A4C0E09155062E2F30E065
:102CA00087E0E89FF0011124EA5AF94FF0933103CD
:102CB000E093300382819381909389008093880010
:102CC0008081918190932C0380932B03E4818091E8
:102CD0002D038E1761F1E0932D0382E1E89FF0014F
:102CE0001124EF57F94FF0932F03E0932E038485BF
:102CF0009585A685B785B695A79597958795809371
:102D0000170390931803A0931903B0931A038093A9
:102D1000130390931403A0931503B09316038093A9
:102D20000F0390931003A0931103B0931203A0918B
:102D30002E03B0912F0350969C91509780910D03D4
:102D4000892780931E0387E0829FF001839FF00D07
:102D50001124EA5AF94F25814D915D916D917C9135
:102D60001397022E04C076956795579547950A9458
:102D7000D2F740931F035093200360932103709375
:102D8000220314964D915D916D917C911797022EBF
:102D900004C076956795579547950A94D2F7409366
:102DA00023035093240360932503709326031896FE
:102DB0008D919D910D90BC91A02D04C0B695A795C5
:102DC000979587952A95D2F78093270390932803A8
:102DD000A0932903B0932A0386810E949E1514C0F4
:102DE0000E94DD15E0912E03F0912F038189882345
:102DF00039F01092B3008091B0008F778093B000CB
:102E000084E00E948E1D46C1809119018130B1F489
:102E100086B1807290910001891781F0109219019A
:102E20008CE0E1E0F1E0ADE0B1E001900D928A9537
:102E3000E1F780910B07806480930B0710921D03CC
:102E400040910F0350911003609111037091120390
:102E500080911F0390912003A0912103B091220340
:102E6000840F951FA61FB71F80930F039093100325
:102E7000A0931103B0931203E0912E03F0912F035E
:102E80004485558566857785481759076A077B0706
:102E900068F524E020931D03448555856685778574
:102EA000841B950BA60BB70B80930F039093100315
:102EB000A0931103B0931203208980910101909196
:102EC0000201A0910301B091040125FF04C0019704
:102ED000A109B10903C00196A11DB11D8093010193
:102EE00090930201A0930301B09304014091130356
:102EF0005091140360911503709116038091230380
:102F000090912403A0912503B0912603840F951F6F
:102F1000A61FB71F8093130390931403A093150368
:102F2000B0931603448555856685778548175907FC
:102F30006A077B0778F520911D03286020931D0305
:102F40004485558566857785841B950BA60BB70B45
:102F50008093130390931403A0931503B093160367
:102F600020898091050190910601A0910701B091FF
:102F7000080126FF04C00197A109B10903C0019609
:102F8000A11DB11D8093050190930601A093070137
:102F9000B0930801409117035091180360911903F1
:102FA00070911A038091270390912803A09129031F
:102FB000B0912A03840F951FA61FB71F8093170394
:102FC00090931803A0931903B0931A034485558571
:102FD00066857785481759076A077B0778F520913A
:102FE0001D03206120931D034485558566857785E3
:102FF000841B950BA60BB70B8093170390931803B4
:10300000A0931903B0931A0320898091090190912C
:103010000A01A0910B01B0910C0127FF04C0019798
:10302000A109B10903C00196A11DB11D8093090139
:1030300090930A01A0930B01B0930C0180911A01A7
:10304000843039F490911D0380912001892380936D
:103050001D0380912B0390912C03019790932C03D7
:1030600080932B03892B69F4109231031092300363
:10307000809155068F5F80935506863011F410922B
:10308000550690911D0380910C03892780931D03A1
:1030900010920E03FF91EF91BF91AF919F918F918D
:1030A0007F916F915F914F913F912F910F900FBE44
:1030B0000F901F9018958091700182FF02C0289A8E
:1030C00001C0289880910C0380931D0380915B01BF
:1030D000880F8450819580931C0380916F008260DB
:1030E00080936F0008954F925F926F927F928F92BC
:1030F0009F92AF92BF92CF92DF92EF92FF926B01BD
:103100007C0180906C0190906D01A0906E01B09058
:103110006F01409068015090690160906A01709061
:103120006B01A3019201C501B4010E94CD3887FF54
:1031300019C06091230170E080E090E00E945F3749
:103140002AE037ED43E25CE30E940D39A7019601C6
:103150000E940D396B017C01A30192010E94CD38C0
:1031600087FD0AC0409227015092280160922901F0
:1031700070922A018FEF47C0A5019401C701B601E3
:103180000E94AB361816E4F020E030E0A901C70138
:10319000B6010E94AB36811109C01092270110922E
:1031A00028011092290110922A012DC08092270136
:1031B00090922801A0922901B0922A0181E023C0B7
:1031C000C0922701D0922801E0922901F0922A01B1
:1031D000A5019401C701B6010E94B53520910803ED
:1031E0003091090340910A0350910B030E940D395D
:1031F0000E949A3720E030E040E85FE30E94B63555
:103200000E942E37862FFF90EF90DF90CF90BF90D7
:10321000AF909F908F907F906F905F904F900895A8
:1032200090911B01911126C081110EC010922701AF
:10323000109228011092290110922A018091B00069
:103240008F778093B00014C0803111F42D9801C0A5
:103250002D9A9091700191FF05C0803219F440E0E1
:1032600050E0BA01CB01BA010E9473180E949E156A
:10327000109225010895CF93DF93239AC0EBD0E0FD
:1032800083E0888381E08093B100259A20916C01CE
:1032900030916D0140916E0150916F016091680114
:1032A0007091690180916A0190916B010E94B5351E
:1032B0009B01AC0160E070E08EE793E40E94B536BC
:1032C000609308037093090380930A0390930B03A0
:1032D00088818F778883DF91CF9108956AE080E0BD
:1032E00090E00E945F0245E550E06BE271E081E012
:1032F00090E00C9481020F931F93CF93C82F8B0102
:103300000E94CA272DE0C29FC00111244CE050E06A
:10331000B8019E5FCF911F910F910C9481021F9372
:10332000CF93DF93182FEB018DE0189FB00111248C
:103330007E5F4CE050E0CE010E941B02892B59F4C5
:103340008CE0FE0111928A95E9F7BE01812F0E945F
:103350007B1980E001C081E0DF91CF911F9108953A
:10336000EF92FF920F931F93CF93DF93CDB7DEB70A
:103370002C970FB6F894DEBF0FBECDBF182F80FF7D
:10338000E8C08AE080935B0189E180935E0187E079
:1033900080935C0186E080935D0110925F018AE07A
:1033A00097EDA3EABCE38093600190936101A09341
:1033B0006201B09363018FE692E1A3E0BBE38093E7
:1033C000640190936501A0936601B093670180E06A
:1033D00090E0AAEFB4E48093680190936901A09310
:1033E0006A01B0936B0110926C0110926D01109202
:1033F0006E0110926F0183E08093710180E090E094
:10340000AAEFB3E48093720190937301A0937401C7
:10341000B093750180E090E4ACE1B5E4809376016F
:1034200090937701A0937801B09379018CE291E0B9
:1034300090937B0180937A0180E090E0A0EAB0E471
:1034400080937C0190937D01A0937E01B0937F01D6
:1034500082E18093700180E090E0A0EAB2E4809382
:103460002B0190932C01A0932D01B0932E018093FA
:103470002F0190933001A0933101B093320180E08D
:1034800090E0A8E4B2E48093330190933401A093D8
:103490003501B093360180E090E4ACE1B6E480936E
:1034A000370190933801A0933901B0933A0180938A
:1034B0003B0190933C01A0933D01B0933E0180936A
:1034C0003F0190934001A0934101B093420180E0FD
:1034D0009AEBABE5BAE48093430190934401A09347
:1034E0004501B09346018093470190934801A09312
:1034F0004901B0934A0180934B0190934C01A093F2
:103500004D01B0934E0180E090E0A6E1B4EC8093D1
:103510004F0190935001A0935101B093520180E06C
:1035200090E0A8ECB3EC8093530190935401A093E6
:103530005501B093560180E090E0A1E9B3EC80938F
:10354000570190935801A0935901B0935A010E94DA
:103550006E1911FF10C0CE0101967C018CE0F701BD
:1035600011928A95E9F700E0B701802F0E947B193C
:103570000F5F0830C9F712FF14C060E080E093E0ED
:103580000E945F0260E081E093E00E945F0260E0E1
:1035900081E593E00E945F0260E082E593E00E9493
:1035A0005F0213FF0AC060E08EEA93E00E945F02B0
:1035B00060E08FEA93E00E945F022C960FB6F894C9
:1035C000DEBF0FBECDBFDF91CF911F910F91FF9056
:1035D000EF9008951F920F920FB60F9211242F9320
:1035E0003F934F935F936F937F938F939F93AF938B
:1035F000BF93EF93FF93E091C600E235E9F068F4E2
:10360000E83239F120F4E13241F588E019C0E932BD
:1036100011F1EF3311F581E013C0EB37B1F030F465
:10362000EB3589F0ED35C9F481E03EC0ED3779F036
:10363000EE3799F482E004C00E94682949C080E214
:103640000E948E1D45C081E025C082E023C084E039
:1036500021C082E029C084E027C0E7FF28C08E2F68
:1036600090E0FC01E458F109ED31F10588F5E659E7
:10367000FF4F0C94583A80911A0185FF29C080E4CD
:10368000DFCF88E007C080E105C080E203C080E4AE
:1036900001C080E80E94751D1BC088E005C080E164
:1036A00003C080E201C080E40E946C1D11C0A091A3
:1036B0009C0281E08A0F813809F480E090919B029E
:1036C000891731F0B0E0A65EBD4FEC9380939C0269
:1036D000FF91EF91BF91AF919F918F917F916F91EA
:1036E0005F914F913F912F910F900FBE0F901F90C0
:1036F00018951F920F920FB60F9211248F939F93DC
:10370000EF93FF9380910703E82FF0E0E256FD4F1F
:1037100090819093C6008F5F893609F480E0809392
:10372000070390919D02891305C08091C1008F7D90
:103730008093C100FF91EF919F918F910F900FBEE9
:103740000F901F901895E0919D0291E09E0F993681
:1037500031F490E004C020910B0724FD0FC02091AC
:1037600007032917C1F3F0E0E256FD4F80839093E1
:103770009D028091C10080628093C1000895CF9323
:10378000C82F8AE193E00E9427278C2F0E940127EF
:10379000CF910C941810CF93DF93CDB7DEB72C9751
:1037A0000FB6F894DEBF0FBECDBF84E193E00E9458
:1037B00027276DE071E0CE0101960E94971DCE0192
:1037C00001960E94FF0F8AE30E94A31B80911F01B4
:1037D0000E9401270E9450102C960FB6F894DEBF6D
:1037E0000FBECDBFDF91CF910895EF92FF920F935F
:1037F0001F93CF93DF9360915B0170E080E00E94A4
:103800003C1060915E0170E081E00E943C1060918C
:103810005C0170E082E00E943C1060915D0170E00C
:1038200083E00E943C106091700162FB662760F9A2
:1038300070E084E00E943C106091700166FB662796
:1038400060F970E085E00E943C1080917001082EC4
:10385000000C990B692F661F6627661F70E086E0D3
:103860000E943C1060915F0170E08AE00E943C1071
:10387000409160015091610160916201709163011A
:1038800023E08BE00E941C1040916401509165017F
:10389000609166017091670123E08CE00E941C102A
:1038A00060917001617070E08DE00E943C10609149
:1038B000700165FB662760F970E084E10E943C10AE
:1038C0006091700163FB662760F970E085E10E94FA
:1038D0003C10609170016295617070E086E10E9419
:1038E0003C106091710170E087E10E943C104091B2
:1038F000720150917301609174017091750123E020
:1039000088E10E941C1040917601509177016091EE
:1039100078017091790123E089E10E941C10609187
:103920007A0170917B018AE10E943C1040917C01F8
:1039300050917D0160917E0170917F0123E08BE1C8
:103940000E941C10409168015091690160916A01C8
:1039500070916B0120E08EE10E941C1040916C017F
:1039600050916D0160916E0170916F0120E08FE1C7
:103970000E941C10609170016695617070E080E299
:103980000E943C10D4E6F12C0BE211E083E0E82E1B
:10399000ED0ECD2F82E0F81691F0E3E0FE16E9F08F
:1039A000F1E0FF1631F0F8014081518162817381AD
:1039B0001AC0F801448555856685778514C020E0D6
:1039C00030E041E655E4F801608D718D828D938D74
:1039D0000E94B536AB01BC0106C0F80144A155A157
:1039E00066A177A1705823E08C2F0E941C100C5FF9
:1039F0001F4FCF5FEC12CECFD65FF394DC3821F6A9
:103A0000DF91CF911F910F91FF90EF900895811159
:103A100004C081E293E00C9427270C94BF1BCF9342
:103A2000DF93C5E1D7E08991882319F00E94A31B99
:103A3000FACFDF91CF910895CF93DF9321E5829F55
:103A4000C0011124EC01DD5F40E550E0BE0185E1DD
:103A500097E00E941B02892B69F4109215070E94BF
:103A6000CA2740E550E065E177E0CE010E9481027F
:103A700080E001C081E0DF91CF910895CF93DF9383
:103A8000C0E08C2F0E941C1D81110EC010921507E2
:103A90008EE30E94A31B0E940F1D8AE30E94A31BBA
:103AA00087E00E94BF1B12C080911507882371F028
:103AB0000E94CB02D82F8EE30E94A31B0E940F1DF1
:103AC0008AE30E94A31B8D2F0E94071DCF5FC23087
:103AD000C1F6DF91CF9108959FB7F89420910E071A
:103AE000822B80930E079FBF08959FB7F894209173
:103AF0000D07822B80930D079FBF08959FB7F89401
:103B000080930C079FBF08952FB7F89490910B07EF
:103B10008095892380930B072FBF08959FB7F89452
:103B200020910B07822B80930B079FBF08958F92E4
:103B30009F92AF92BF92CF92DF92EF92FF920F933C
:103B40001F93CF93DF93EB012BE2E22E21E0F22EC5
:103B50008C016B018CE0C80ED11C6991799189911F
:103B60009991F70181909190A190B1907F010E946D
:103B70005F37A50194010E94B536F80161937193F6
:103B8000819391938F01CC15DD0539F7DF91CF91AA
:103B90001F910F91FF90EF90DF90CF90BF90AF906B
:103BA0009F908F90089596B1892F877071F081E072
:103BB000292F227091FF80E090FF8260211101C0C7
:103BC000846092FD03C08860089580E008951F928C
:103BD0000F920FB60F9211242F933F934F935F9341
:103BE0006F937F938F939F93AF93BF93EF93FF93C5
:103BF0000E94D31D882391F081FF03C00E94682991
:103C00000DC083FF04C080910B07826005C080FF58
:103C100005C080910B07806280930B07FF91EF91A5
:103C2000BF91AF919F918F917F916F915F914F91D4
:103C30003F912F910F900FBE0F901F9018952F92CC
:103C40003F924F925F926F927F928F929F92AF922C
:103C5000BF92CF92DF92EF92FF920F931F93CF9379
:103C6000DF93CDB7DEB7EC970FB6F894DEBF0FBE8B
:103C7000CDBF80911E0180FD87C790915506809130
:103C80000F07981709F480C78091120790911307C6
:103C9000892B09F015C310911E0112FF09C08091F4
:103CA000540622E3289FC00111248C5C9C4F02C063
:103CB0000E94BA279093130780931207209012074F
:103CC000309013072114310409F45EC70091DC061B
:103CD000802F817000FF03C01092DC06EAC0909133
:103CE000DB069F5F953009F0892F8093DB06E82E75
:103CF000F12C32E13E9DF0013F9DF00D1124EF5774
:103D0000F94FF0931107E0931007D10150969C9161
:103D10005097908BE2E18E9FC001112420E030E0AB
:103D20004D915D916D917D91F901E80FF91FEF576C
:103D3000F94F689412F8440F551F661F771F1694A9
:103D4000D1F740835183628373832C5F3F4F2C30C4
:103D5000310531F722E12E9DF0012F9DF00D112448
:103D60009F012F57394FF10184859585A685B78529
:103D700043E0880F991FAA1FBB1F4A95D1F7F9018D
:103D800084879587A687B787D1011C966D917D9111
:103D90008D919C911F970E945D376093E10670930F
:103DA000E2068093E3069093E406F101268D378DB9
:103DB00040A151A10E94B5369B01AC016093E5067C
:103DC0007093E6068093E7069093E80660E070E063
:103DD00080EA9FE30E94B5366093E9067093EA0695
:103DE0008093EB069093EC061092DD061092DE06AF
:103DF0001092DF061092E00611FD02C003FF1FC003
:103E00006091FA067091FB068091FC069091FD0688
:103E10006093F2067093F3068093F4069093F50690
:103E20009B01AC010E940D39D10152966D937D9397
:103E30008D939C935597077F0093DC060FC0F1018B
:103E400062897389848995890E94AC396093F206EE
:103E50007093F3068093F4069093F506F2E1FE9DCD
:103E6000C001FF9D900D11249C012F57394F7901FE
:103E7000D90151961C928091700181FF1AC0F10105
:103E8000818985FF16C022A533A544A555A560E00C
:103E900070E080E89FE30E94B53660930607709358
:103EA00007078093080790930907E1E0D70151962F
:103EB000EC931092EE061092EF061092F00610921C
:103EC000F106D1015A962D913D914D915C915D97EE
:103ED00029833A834B835C8360E070E080E09FE35A
:103EE0000E94B5364B015C01F101468C578C60A0F5
:103EF00071A011FF4BC0F2E0F093ED06D101529694
:103F0000CD90DD90ED90FC905597A70196010E9411
:103F10000D399B01AC01C301B2010E94B5354B01C3
:103F20005C0120E030E0A9010E94AB3687FF1DC094
:103F300029813A814B815C81CA01B9010E94B63561
:103F4000A30192010E940D399B01AC01C701B6018A
:103F50000E94B5350E94AC396093FA067093FB0657
:103F60008093FC069093FD06A8C18092EE06909285
:103F7000EF06A092F006B092F1061092FA061092A7
:103F8000FB061092FC061092FD0697C11092ED06FA
:103F90004092FE065092FF06609200077092010761
:103FA00012FF0CC01092FA061092FB061092FC064B
:103FB0001092FD06C12CD12C760124C0E091330370
:103FC000EF5FE03109F4E0E0809154068E1759F07C
:103FD000B2E3BE9FF0011124EC5CFC4FC288D38891
:103FE000E488F58803C0C12CD12C7601C701B60145
:103FF0000E94AC396093FA067093FB068093FC062E
:104000009093FD06C1010E944727698B7A8B8B8BA9
:104010009C8B9B01AC010E940D3969877A878B8745
:104020009C87D10152962D913D914D915C91559770
:104030002D833E834F8358870E94AB3687FF6CC029
:1040400029853A854B855C856D817E818F81988538
:104050000E94B535A50194010E940D399B01AC0168
:10406000C301B2010E94B5356093FE067093FF064E
:10407000809300079093010720E030E0A9010E949F
:10408000AB3618163CF1B2E0B093ED0629813A81C7
:104090004B815C81CA01B9010E94B635A30192012E
:1040A0000E940D399B01AC016D817E818F819885C5
:1040B0000E94B5350E94AC396093FA067093FB06F6
:1040C0008093FC069093FD068091DC0688608093C7
:1040D000DC06F3C0A701960169857A858B859C85EE
:1040E0000E94B535A50194010E940D396093020725
:1040F00070930307809304079093050729893A89F1
:104100004B895C892093F6063093F7064093F806B6
:104110005093F90633E0B6C0A70196016D817E8108
:104120008F8198850E94B535A50194010E940D39B3
:10413000A30192010E94B63520E030E040E05FE349
:104140000E940D396D877E878F87988B20E030E045
:10415000A9010E94CD3818160CF097C02D853E8518
:104160004F855889C301B2010E94CD3818160CF052
:1041700088C0A701960169857A858B859C850E94F8
:10418000B535A50194010E940D399B01AC016093E6
:1041900002077093030780930407909305076D85CA
:1041A0007E858F8598890E94CD381816CCF589892F
:1041B0009A89AB89BC898093F6069093F706A09301
:1041C000F806B093F9062D813E814F8158856985A7
:1041D0007A858B859C850E94AB36811104C091E065
:1041E0009093ED066AC02D813E814F815885698587
:1041F0007A858B859C850E94B535A50194010E9426
:104200000D399B01AC01C301B2010E94B535609329
:10421000FE067093FF0680930007909301074DC040
:104220002D853E854F8558892093FE063093FF06E5
:104230004093000750930107209302073093030730
:10424000409304075093050729813A814B815C8193
:10425000CA01B9010E94B6352D853E854F85588922
:104260000E940D39A70196010E94B6350E94AC3913
:104270006093F6067093F7068093F8069093F9061C
:104280001CC032E03093ED0618C01092FE0610926A
:10429000FF0610920007109201078091FA06909194
:1042A000FB06A091FC06B091FD068093F606909364
:1042B000F706A093F806B093F906186010931E0154
:1042C00080918006482F50E05A8B498B87E0849F6D
:1042D000F001859FF00D1124EA5AF94F8091DB0619
:1042E0008483A0911207B0911307BCAFABAF5E9669
:1042F000BC91BAA3EBADFCADF78DFBA3ABADBCADF0
:104300009096BC91BCA3EBADFCADF1A1FDA32091B7
:10431000E9063091EA064091EB065091EC066AA15D
:104320007BA18B2F9F2F0E94B5356EA77FA788ABEF
:1043300099AB20E030E0A9010E94AB3687FF04C0B2
:104340001EA61FA618AA19AA2091F6062E8B309138
:10435000F7063F8B4091F806488F5091F906598F28
:104360008091FE068A8F9091FF069B8FA091000797
:10437000AC8FB0910107BD8FE091F206E983F09117
:10438000F306FD832091F40629873091F5063D87D9
:10439000409102074EA3509103075FA38091040749
:1043A00088A79091050799A7A091ED06AD8BB091D4
:1043B000EE06BAA7E091EF06EBA7F091F006FCA796
:1043C0002091F1062DA73091FA063BAB4091FB06F8
:1043D0004CAB5091FC065DAB8091FD068EAB2EA1DF
:1043E0003FA148A5592F6A8D7B8D8C8D9D8D0E9494
:1043F000AB36811103C092E09AAB02C0A1E0AAAB38
:104400003AA02BA01CA10DA18EE3C82E83ECD82EC0
:104410008EE2E82E89E3F82E412C512C3201CE8E0B
:10442000DF8EE8A2F9A23D89313009F4F2C0ABADCC
:10443000BCAD313008F47BC0333009F020C15A964E
:104440002D913D914D915C915D97C701B6010E9400
:104450000D394B015C012E893F89488D598D698149
:104460007D8189859D850E94B5359B01AC01C50183
:10447000B4010E94CD3887FD31C02A8D3B8D4C8D13
:104480005D8D6AA17BA18CA19DA10E94B5359B0188
:10449000AC010E94B6356B017C0129813D814985C3
:1044A0005D856E897F89888D998D0E94B6359B01C7
:1044B000AC01C701B6010E94B5366B017C01BE8913
:1044C000B983EF89ED83F88DF987298D2D873A8C93
:1044D0002B8C1C8D0D8D31E03D8B51C120E030E0E7
:1044E00040E05FE3C501B4010E940D399B01AC01BE
:1044F00069817D8189859D850E94B535A7019601D9
:104500000E940D399B01AC01632D722D812F902FDC
:104510000E94B535362E272E182F092FA50194019C
:1045200069817D8189859D850E94B5356DC05A96CA
:104530002D913D914D915C915D97C701B6010E940F
:104540000D394B015C0120E030E040E05FE30E9468
:104550000D3929813D8149855D850E94B635A701C8
:1045600096010E940D399B01AC01632D722D812FA4
:10457000902F0E94B535362E272E182F092F262F63
:10458000372F482F592F6A8D7B8D8C8D9D8D0E94E2
:10459000CD3818168CF52A8D3B8D4C8D5D8D6AA11A
:1045A0007BA18CA19DA10E94B5359B01AC010E940D
:1045B000B6356B017C0129813D8149855D856E8918
:1045C0007F89888D998D0E94B6359B01AC01C7010A
:1045D000B6010E94B5366B017C01BAA9BD8BEE898C
:1045E000E983FF89FD83288D2987398D3D873A8CA2
:1045F0002B8C1C8D0D8DC3C0A501940169817D811B
:1046000089859D850E94B63569837D8389879D87CD
:10461000B6C02E893F89488D598DC701B6010E94C9
:104620000D399B01AC01632D722D812F902F0E94BB
:10463000B5355B014C019B01AC016EA17FA188A542
:1046400099A50E94CD3818160CF095C02EA13FA157
:1046500048A559A5632D722D812F902F0E94B53545
:104660002E893F89488D598D0E94B5366B017C019A
:104670003EA02FA018A509A542E04D8B80C05A96F8
:104680002D913D914D915C915D97C701B6010E94BE
:104690000D394B015C0129813D8149855D850E9471
:1046A000AB3687FF39C020E030E040E05FE3C50172
:1046B000B4010E940D399B01AC0169817D8189851E
:1046C0009D850E94B535A70196010E940D399B0179
:1046D000AC01632D722D812F902F0E94B5356FABE9
:1046E00078AF89AF9AAF2AA53BA54CA55DA50E94DE
:1046F000CD3818168CF4A501940169817D818985D6
:104700009D850E94B53569837D8389879D873FA8F4
:1047100028AC19AD0AAD33C02AA53BA54CA55DA5B3
:10472000632D722D812F902F0E94B5359B01AC0116
:104730000E94B6356B017C0129813D8149855D85EB
:104740006BA97CA98DA99EA90E94B6359B01AC01DD
:10475000C701B6010E94B5366B017C01BBA9B983C4
:10476000ECA9ED83FDA9F9872EA92D873AA42BA4E6
:104770001CA50DA504C03A2C2B2C182D092DA70122
:104780009601C301B2010E94B6352B013C012E8D6A
:104790003F8D48A159A10E94AB3687FF07C0A301F6
:1047A00092016E8D7F8D88A199A11CC02EA53FA579
:1047B00048A959A9632D722D812F902F0E94CD38C1
:1047C000181684F52EE333EC4EE259E36E8D7F8D9F
:1047D00088A199A10E94B6356E8F7F8F88A399A377
:1047E000A30192010E94B5356B017C01232D322D6E
:1047F000412F502F6AA57BA58CA59DA50E94AB36A5
:1048000087FD11CE89819D81A985BD858093F206A2
:104810009093F306A093F406B093F5063D89309388
:10482000ED060FC089819D81A985BD858093F20623
:104830009093F306A093F406B093F5064D89409348
:10484000ED06E0911007F09111079189911104C0D4
:1048500080911E0183FF3FC0ABADBCAD51968C91E2
:104860005197807349F19E96CD90DD90ED90FC902C
:10487000D1979923D1F020910607309107074091F5
:104880000807509109076091F2067091F306809134
:10489000F4069091F5060E940D399B01AC01C70109
:1048A000B6010E940D396B017C01C701B6010E945F
:1048B000731880930A070AC01092270110922801EA
:1048C0001092290110922A0110920A0780911E016C
:1048D000877F80931E0147E029893A89429FF00132
:1048E000439FF00D1124EA5AF94FFA87E987809126
:1048F0000A0786832091E5063091E6064091E70697
:104900005091E806632D722D812F902F0E940D3952
:1049100069837A838B839C830E9494366B017C012C
:104920006091E1067091E2068091E3069091E406C1
:104930000E9494364B015C01A70196010E94B53597
:104940000E942E376D837E838F839887ED81FE8151
:10495000A985BA85ED93FC93EF2B41F480911E015C
:1049600081FF04C0816080931E010EC12091DD068D
:104970003091DE064091DF065091E006C301B2019E
:104980000E94B6352B013C0129813A814B815C8123
:10499000C501B4010E94B5359B01AC01C301B20150
:1049A0000E94B5364B015C0120EC31EE44E65EE43A
:1049B0000E940D390E9494360E942E37603D37E0E8
:1049C00073078105910560F4A7E049895A89A49F7E
:1049D000F001A59FF00D1124EA5AF94F158253C03A
:1049E000603ABFE07B078105910560F447E02989C3
:1049F0003A89429FF001439FF00D1124EA5AF94F82
:104A000051E011C06034AFE17A078105910568F487
:104A100047E029893A89429FF001439FF00D112414
:104A2000EA5AF94F52E055830CC027E0A989BA89A8
:104A30002A9FF0012B9FF00D1124EA5AF94F33E021
:104A40003583A7E049895A89A49FF001A59FF00DFD
:104A50001124EA5AF94F2581022E04C096958795B4
:104A6000779567950A94D2F74D815E8102C0440F15
:104A7000551F2A95E2F7518340836115710551E076
:104A80008507910568F427E0A989BA892A9FF00172
:104A90002B9FF00D1124EA5AF94F7383628304C0EF
:104AA0004FEF5FEF5383428380910F07809380061F
:104AB0008F5F863019F080930F0702C010920F07A6
:104AC000E0911207F0911307832D922DA12FB02FA3
:104AD000868F978FA0A3B1A3C092E106D092E20681
:104AE000E092E306F092E40629813A814B815C81F1
:104AF000C701B6010E94B535A50194010E940D3988
:104B00006093DD067093DE068093DF069093E006E7
:104B10002091EE063091EF064091F0065091F1069B
:104B2000632D722D812F902F0E94AB368111A5C865
:104B300020E030E0A901632D722D812F902F0E947B
:104B4000CD3890911E01181614F092FF04C09160A8
:104B500090931E0119C010921307109212079091A2
:104B6000330380915406891709F487C881E0890FBF
:104B7000803109F480E020913203921302C08093C7
:104B800032038093330379C8EC960FB6F894DEBFF6
:104B90000FBECDBFDF91CF911F910F91FF90EF908E
:104BA000DF90CF90BF90AF909F908F907F906F904D
:104BB0005F904F903F902F900895CF93DF93C091D7
:104BC0001207D09113072097C9F08091DC0681600D
:104BD0008093DC066091F2067091F3068091F406F2
:104BE0009091F5069B01AC010E940D396A8B7B8B7D
:104BF0008C8B9D8B1092130710921207DF91CF912F
:104C00000895CF93DF930E94DD1580E3EBEDF6E08E
:104C1000DF011D928A95E9F7CFE0D3E083E2FE0140
:104C200011928A95E9F710921307109212071092C9
:104C300055061092800681E080930F0710920E03B4
:104C40000E94AC1580910D038F878BB1837E90916C
:104C50000C03892B8BB98BB18F7190910D03892B2C
:104C60008BB9DF91CF91089510920001909170015E
:104C700097FD03C090E290930001882331F090915A
:104C8000000180E289278093000108958F929F920E
:104C9000AF92BF92CF92DF92EF92FF920F931F934A
:104CA000CF93DF93CDB7DEB72D970FB6F894DEBF65
:104CB0000FBECDBF6B017C01042F20E030E0A901C5
:104CC0000E94AB3687FF07C08DE20E94A31BF7FA54
:104CD000F094F7F8F094102F123060F020E030E0FC
:104CE00048EC52E4C701B6010E940D396B017C010A
:104CF0001250F2CF00FF0AC020E030E040E251E461
:104D0000C701B6010E940D396B017C0120E030E043
:104D100040E05FE3C701B6010E94B6350E94273725
:104D200010E03AE0832E912CA12CB12C6115710575
:104D30008105910591F0EE24E394F12CEC0EFD1E1B
:104D4000E10EF11CA50194010E94363A605DF70165
:104D50006083B901CA011F5FE9CF80E3101748F4EF
:104D6000E1E0F0E0EC0FFD1FE10FF11D80831F5F1C
:104D7000F5CF101313C0FE01E10FF11D80E3818315
:104D80001F5F0CC0101303C08EE20E94A31BFE0124
:104D9000E10FF11D80810E94A31B11501111F2CF70
:104DA0002D960FB6F894DEBF0FBECDBFDF91CF9129
:104DB0001F910F91FF90EF90DF90CF90BF90AF9039
:104DC0009F908F9008952091700120FF08C02BE8DC
:104DD00032E441E25DE30E940D3941E001C040E070
:104DE0000C9446262091700120FF08C02BE832E485
:104DF00041E25DE30E940D3944E001C043E00C94C0
:104E00004626CF93DF93843630F06AE00E94163A4C
:104E1000C0E3C90F03C0C0E08A3030F06AE00E94EE
:104E2000163AD0E3D90F01C0D0E0805D0E94A31BE9
:104E3000DD2319F08D2F0E94A31BCC2329F08C2F8A
:104E4000DF91CF910C94A31BDF91CF910895CF9365
:104E5000DF93FC018491EF012196882321F00E94C9
:104E6000A31BFE01F7CFDF91CF910895E1E0F1E0C0
:104E7000AEEFB1E041915191619171914D935D938C
:104E80006D937D9381E0ED30F807A1F70895BF920F
:104E9000CF92DF92EF92FF920F931F93CF93DF9306
:104EA0007C01FC0102A513A5D4A5C5A5818980FFBD
:104EB00018C06091220170E080E090E00E945F37AE
:104EC0002AE037ED43E25CE30E940D399B01AC011F
:104ED000B8018D2F9C2F0E940D398B01D82FC92F1F
:104EE0002DC082FD17C06091210170E080E090E04C
:104EF0000E945F372AE037ED43E25CE30E940D3900
:104F00009B01AC01B8018D2F9C2F0E940D398B01A4
:104F1000D82FC92FF701B6A0C7A0D0A4F1A42B2D7C
:104F20003C2D4D2D5F2DB8018D2F9C2F0E94CD382B
:104F3000181624F40B2D1C2DDD2DCF2D20E030E094
:104F400040E85FE3B8018D2F9C2F0E94CD381816E2
:104F500024F000E010E0D0E8CFE3B8018D2F9C2FC3
:104F6000DF91CF911F910F91FF90EF90DF90CF9045
:104F7000BF9008958091330390915406981739F0AB
:104F800022E3829FC00111248C5C9C4F089580E035
:104F900090E008950E9496150E948B1480911B0149
:104FA000811108C00E94BA27892BB1F780911A019C
:104FB000883091F308958CE1EEEFF1E0DF011D926E
:104FC0008A95E9F7109233031092540681E080939A
:104FD00014071092320308952F923F924F925F92DE
:104FE0006F927F928F929F92AF92BF92CF92DF92F9
:104FF000EF92FF920F931F93CF93DF93C0915406CC
:10500000C11101C0C0E1C150D0913203DC1709F4D5
:105010001DC1EC2EF12C22E3C29F800111240C5CF7
:105020001C4FF801A688B788C08CD18C628D738D17
:10503000848D958D9B01AC010E94B635F801268DBB
:10504000378D40A151A10E940D394B018C019B016C
:10505000AC01B501C6010E94AB3687FD02C0540108
:10506000680182E38E9DF0018F9DF00D1124EC5CB0
:10507000FC4FC501D601828B938BA48BB58BC111DC
:1050800001C0C0E1C150DC1761F022E32E9DC001D8
:105090002F9D900D11249C012C5C3C4F7901D2E393
:1050A00033C080913303D81360C00E94DD255DC0FA
:1050B000AC2EB12CDA9DC001DB9D900D1124FC01BA
:1050C000EC5CFC4F6F01C11101C0C0E1C150809187
:1050D00033038C1302C00E94DD25DA9D8001DB9D25
:1050E000100D11240C5C1C4FF80186889788A08C49
:1050F000B18CA501940162897389848995890E9484
:10510000AB36811106C0760180913203C813D0CF2F
:105110002CC0F801628D738D848D958D9B01AC013F
:105120000E94B635F801268D378D40A151A10E940D
:105130000D39F70122893389448955890E94B63592
:105140002B013C019B01AC01C501B4010E94CD388B
:10515000F80118162CF4428A538A648A758AD3CFD0
:10516000828A938AA48AB58ACECFD0913203F2E3A1
:10517000DF9F800111240C5C1C4FC1E0CD0FC031BA
:1051800009F4C0E02090540682E3382EC21509F4D9
:105190005BC0CC2ED12C3C9CC0013D9C900D1124B9
:1051A0009C012C5C3C4F7901F8014288538864884B
:1051B0007588F90182889388A488B588A50194012F
:1051C000C301B2010E94AB3687FF24C0F801628D93
:1051D000738D848D958D9B01AC010E94B635F801CD
:1051E000268D378D40A151A10E940D39A301920156
:1051F0000E94B6352B013C019B01AC01C501B401F5
:105200000E94CD38181634F4F701428A538A648A12
:10521000758ADC2F3C9CF0013D9CF00D1124EC5C68
:10522000FC4F26893789408D518D62897389848925
:1052300095890E94AB36811101C0DC2FCF5FC03150
:1052400009F4C0E08701A2CFD0933203DF91CF9160
:105250001F910F91FF90EF90DF90CF90BF90AF9094
:105260009F908F907F906F905F904F903F902F9086
:1052700008951F93CF93DF93142F20E030E040EA8E
:1052800051E40E940D390E9494360E942E37EB01A2
:105290002097D1F080911B01811116C0111103C01C
:1052A0000E948B1406C00E94551080911C0181FD44
:1052B0000BC02FEF80E792E0215080409040E1F753
:1052C00000C000002197E4CFDF91CF911F91089596
:1052D00080910B0784FD1FC080E10E948E1D80918C
:1052E000B0008F778093B000439890911A01892F76
:1052F0008C7221F480911E01867069F0943031F433
:1053000080910C07811105C086E001C083E00E94F6
:105310007E1D0C94DD1508958F929F92AF92BF92DF
:10532000CF92DF92EF92FF920F931F93CF93DF9371
:105330007C016B01DC01CC91D0E0FE01EB5EF84F0B
:1053400080818D3229F4EF012296818101E009C02C
:105350008B3219F0CA5ED84F03C0EF0122968181CB
:1053600000E0912CF0E010E020E030E0A9015E01C7
:10537000E0EDE80FEA30D0F4FF5FF93098F49110D7
:105380001150A5E0B0E00E945E3ADC01CB01880F2D
:10539000991FAA1FBB1F9C01AD012E0F311D411D7E
:1053A000511D0AC0911008C01F5F06C0EE3F41F4B6
:1053B000911006C0992493942196D5018C91D7CF52
:1053C000FF2309F44FC0CA01B9010E945D374B01A8
:1053D0005C0120E030E0A9010E94AB36882349F14E
:1053E0001F3F64F42AE037ED43E25CE3C501B401FA
:1053F0000E940D394B015C011E5FF2CF1F3F59F433
:105400002DEC3CEC4CEC5DE3C501B4010E940D3980
:105410004B015C010EC0112361F020E030E040E25E
:1054200051E4C501B4010E940D394B015C011150DA
:10543000F2CF002351F0B7FAB094B7F8B094F60168
:1054400080829182A282B38206C0D6018D929D9203
:10545000AD92BC921397C551D740C150F701C0839C
:1054600081E001C080E0DF91CF911F910F91FF900B
:10547000EF90DF90CF90BF90AF909F908F90089566
:105480002F923F924F925F926F927F928F929F9254
:10549000AF92BF92CF92DF92EF92FF920F931F9342
:1054A000CF93DF93CDB7DEB7A1970FB6F894DEBFE9
:1054B0000FBECDBF90911B01911187C18D8F9E01B1
:1054C000235F3F4F3A8F298F89E0D9011D928A953A
:1054D000E9F786E08D8B9BE2A92E91E0B92EFE01C3
:1054E00076964F0100E010E0C12CD12C7601FD8DA5
:1054F0006F2E712C802F002321F0013021F090E1DC
:1055000003C094E001C098E0D4019D934D01F301E4
:1055100002C0F595E7958A95E2F7E0FF1BC020E011
:1055200030E040EC5FEBD50194966D917D918D91CB
:105530009C9197970E940D39362E472E582E292E72
:10554000A70196010E94AB3687FD04C0C32CD42C62
:10555000E52CF22C0F5F1F4FB4E0AB0EB11C0330F3
:10556000110541F620907601309077014090780146
:105570005090790184E0A82EBB24B39461E071E0DF
:10558000CE0101960E94971D80917101E82FF0E0F5
:10559000FF8FEE8FFE01319621E031E03C8F2B8FA3
:1055A00039A328A3DE0156964D0180E090E000E08B
:1055B00010E0B701A60170589301082E02C035957E
:1055C00027950A94E2F720FF23C00F5FA8A1B9A195
:1055D0001D921D921D921C9213972E8D3F8D082EA9
:1055E00002C0359527950A94E2F720FF03C0BB203F
:1055F00019F007C0BB2029F0C082D182E282F38279
:1056000004C04083518362837383D4012C91122B95
:105610000196BFEF8B1A9B0A349628A139A12C5F03
:105620003F4F39A328A38330910531F6602F70E0F6
:1056300080E090E00E945D370E94AC399B01AC0194
:1056400010932001C201B1010E940D396D877E8740
:105650008F87988BBE01635F7F4FCE0101960E94BA
:10566000873234E030931E010E941F1E0E945B1897
:10567000BB20E9F00E94DE01FE01769620E030E0DA
:1056800090E06191462F412359F0AC01022E02C0F7
:10569000559547950A94E2F740FF02C0609516239E
:1056A0002F5F3F4F2330310561F7109320010E9497
:1056B0001F1E80910B07847339F110910B0714FFA3
:1056C00003C086E00E947E1D15FF03C087E00E9494
:1056D0007E1DB11007C00E94DE019D8D892339F027
:1056E00088E003C012FF03C089E00E947E1D809104
:1056F0000C07882329F00E9468290E948B1465C03A
:1057000084E00E94841D04C0812F8C7109F0B0CF09
:105710000E94012600917A0110917B01011511056B
:1057200049F0AFE9BFE01197F1F700C00000015068
:105730001109F4CFB1E0BB26C9F020E030E040EA27
:1057400050E460917C0170917D0180917E01909187
:105750007F010E940D396B017C0120907201309015
:105760007301409074015090750110C0C0907C018D
:10577000D0907D01E0907E01F0907F012090760135
:10578000309077014090780150907901AA94A1104F
:10579000F5CEC301002E02C0959587950A94E2F7D5
:1057A00080FF06C0EB8DFC8D108211821282138265
:1057B0000F5F1F4F2B8D3C8D2C5F3F4F3C8F2B8FEE
:1057C0000330110531F710921E01A1960FB6F8941F
:1057D000DEBF0FBECDBFDF91CF911F910F91FF9024
:1057E000EF90DF90CF90BF90AF909F908F907F9081
:1057F0006F905F904F903F902F900895CF93DF93DD
:10580000CDB7DEB761970FB6F894DEBF0FBECDBF40
:105810008091C00082608093C0001092C50080E13A
:105820008093C4008091C10088698093C10080E0AA
:1058300090E00E94A7018A3009F019C545E550E0C3
:1058400061E070E08BE291E00E941B02892B09F479
:105850000EC58AB18C618AB9209A8AB1806E8AB9E4
:10586000809181008F7E809381008091810088608B
:1058700080938100809180008C7F80938000809154
:1058800080008F708093800080916E00887F80936D
:105890006E0014BC15BC80916E00816080936E0018
:1058A00087B1887F87B988B1876088B980916C009B
:1058B000876080936C0080916800826080936800AC
:1058C0008CE0E1E0F1E0DF011D928A95E9F7789440
:1058D00010921A01BDE0CB2EB1E0DB2E33243394BD
:1058E00080911A0191E1EAE1F1E011929A95E9F7CC
:1058F00080931A0184E68093210180932201809392
:1059000023018CE0D6011D928A95E9F710921901C6
:1059100010920B0710920C0710920D0710920E07B1
:1059200080919C0280939B0280E4E0E8F1E0119278
:105930008A95E9F764EA71E080E00E948F1981118D
:1059400003C087E00E94BF1B0E943B193B9A43980B
:105950000E94FE013D98459A80E00E9434260E94F4
:10596000DB270E9401260E9436270E9415028AE545
:1059700091E00E94272710921A010E94D31D80FFF8
:1059800007C080910B07806280930B070E948B14E5
:105990000E943E1D10E000E0F2E0EF2EA4E02A2E6F
:1059A00090919B0280919C02981309C00E949615C9
:1059B0000E948B1480911B01882391F391CFE92FD2
:1059C000F0E0E65EFD4F80819F5F913809F490E042
:1059D00090939B028F3F51F38A3019F08D3009F07C
:1059E00020C40E948B1480911B01811179CFE12F7B
:1059F000F0E0EB5EF84F1082F02FF170FF2E00FF09
:105A000002C08BE004C480911507882309F404C404
:105A1000843209F0F7C3398A809116078334E1F0A4
:105A200034F4882361F0843209F005C115C08A344A
:105A300059F0883589F0873409F0FDC00DC087EC36
:105A400091E00E942727DCC3809117078D3309F06E
:105A5000CFC30E94CB02C7C3909117079111C8C34F
:105A6000833409F4B2C01CF4843239F0C9C38734DA
:105A700069F0883509F4C3C0C3C380911A018871E5
:105A8000F82E09F0AAC30E94F51BBAC381EC91E07D
:105A90000E942727809180018C3838F08DEB91E0AF
:105AA0000E942727809180018A580E9401278EEA50
:105AB00091E00E942727809186018A5C0E9401273D
:105AC0008EEA91E00E942727809184018F5E0E94D8
:105AD00001278EEA91E00E9427278091820125E12B
